{
  "contractName": "EldoraDex",
  "abi": [
    {
      "inputs": [],
      "stateMutability": "nonpayable",
      "type": "constructor"
    },
    {
      "anonymous": false,
      "inputs": [
        {
          "indexed": false,
          "internalType": "uint256",
          "name": "date",
          "type": "uint256"
        },
        {
          "indexed": false,
          "internalType": "uint256",
          "name": "idTrade",
          "type": "uint256"
        },
        {
          "indexed": false,
          "internalType": "uint256",
          "name": "idOrder",
          "type": "uint256"
        },
        {
          "indexed": true,
          "internalType": "address",
          "name": "trader1",
          "type": "address"
        },
        {
          "indexed": true,
          "internalType": "address",
          "name": "trader2",
          "type": "address"
        },
        {
          "indexed": true,
          "internalType": "bytes32",
          "name": "ticker",
          "type": "bytes32"
        },
        {
          "indexed": false,
          "internalType": "uint256",
          "name": "amount",
          "type": "uint256"
        },
        {
          "indexed": false,
          "internalType": "uint256",
          "name": "price",
          "type": "uint256"
        }
      ],
      "name": "NewTrade",
      "type": "event"
    },
    {
      "inputs": [],
      "name": "admin",
      "outputs": [
        {
          "internalType": "address",
          "name": "",
          "type": "address"
        }
      ],
      "stateMutability": "view",
      "type": "function",
      "constant": true
    },
    {
      "inputs": [
        {
          "internalType": "bytes32",
          "name": "",
          "type": "bytes32"
        },
        {
          "internalType": "uint256",
          "name": "",
          "type": "uint256"
        },
        {
          "internalType": "uint256",
          "name": "",
          "type": "uint256"
        }
      ],
      "name": "orderBook",
      "outputs": [
        {
          "internalType": "uint256",
          "name": "id",
          "type": "uint256"
        },
        {
          "internalType": "uint256",
          "name": "price",
          "type": "uint256"
        },
        {
          "internalType": "uint256",
          "name": "amount",
          "type": "uint256"
        },
        {
          "internalType": "bytes32",
          "name": "ticker",
          "type": "bytes32"
        },
        {
          "internalType": "uint256",
          "name": "filled",
          "type": "uint256"
        },
        {
          "internalType": "enum EldoraDex.Side",
          "name": "side",
          "type": "uint8"
        },
        {
          "internalType": "address",
          "name": "trader",
          "type": "address"
        },
        {
          "internalType": "uint256",
          "name": "date",
          "type": "uint256"
        }
      ],
      "stateMutability": "view",
      "type": "function",
      "constant": true
    },
    {
      "inputs": [
        {
          "internalType": "bytes32",
          "name": "",
          "type": "bytes32"
        }
      ],
      "name": "tokens",
      "outputs": [
        {
          "internalType": "bytes32",
          "name": "ticker",
          "type": "bytes32"
        },
        {
          "internalType": "address",
          "name": "tokenAddress",
          "type": "address"
        }
      ],
      "stateMutability": "view",
      "type": "function",
      "constant": true
    },
    {
      "inputs": [
        {
          "internalType": "uint256",
          "name": "",
          "type": "uint256"
        }
      ],
      "name": "tokensList",
      "outputs": [
        {
          "internalType": "bytes32",
          "name": "",
          "type": "bytes32"
        }
      ],
      "stateMutability": "view",
      "type": "function",
      "constant": true
    },
    {
      "inputs": [
        {
          "internalType": "address",
          "name": "",
          "type": "address"
        },
        {
          "internalType": "bytes32",
          "name": "",
          "type": "bytes32"
        }
      ],
      "name": "traderBalances",
      "outputs": [
        {
          "internalType": "uint256",
          "name": "",
          "type": "uint256"
        }
      ],
      "stateMutability": "view",
      "type": "function",
      "constant": true
    },
    {
      "inputs": [
        {
          "internalType": "uint256",
          "name": "amount",
          "type": "uint256"
        },
        {
          "internalType": "bytes32",
          "name": "ticker",
          "type": "bytes32"
        }
      ],
      "name": "depositTokens",
      "outputs": [],
      "stateMutability": "nonpayable",
      "type": "function"
    },
    {
      "inputs": [
        {
          "internalType": "uint256",
          "name": "amount",
          "type": "uint256"
        },
        {
          "internalType": "bytes32",
          "name": "ticker",
          "type": "bytes32"
        }
      ],
      "name": "withdrawTokens",
      "outputs": [],
      "stateMutability": "nonpayable",
      "type": "function"
    },
    {
      "inputs": [
        {
          "internalType": "bytes32",
          "name": "ticker",
          "type": "bytes32"
        },
        {
          "internalType": "address",
          "name": "tokenAddress",
          "type": "address"
        }
      ],
      "name": "addToken",
      "outputs": [],
      "stateMutability": "nonpayable",
      "type": "function"
    },
    {
      "inputs": [
        {
          "internalType": "enum EldoraDex.Side",
          "name": "side",
          "type": "uint8"
        },
        {
          "internalType": "bytes32",
          "name": "ticker",
          "type": "bytes32"
        },
        {
          "internalType": "uint256",
          "name": "amount",
          "type": "uint256"
        },
        {
          "internalType": "uint256",
          "name": "price",
          "type": "uint256"
        }
      ],
      "name": "createLimitOrder",
      "outputs": [],
      "stateMutability": "nonpayable",
      "type": "function"
    },
    {
      "inputs": [
        {
          "internalType": "enum EldoraDex.Side",
          "name": "side",
          "type": "uint8"
        },
        {
          "internalType": "bytes32",
          "name": "ticker",
          "type": "bytes32"
        },
        {
          "internalType": "uint256",
          "name": "amount",
          "type": "uint256"
        }
      ],
      "name": "createMarketOrder",
      "outputs": [],
      "stateMutability": "nonpayable",
      "type": "function"
    },
    {
      "inputs": [
        {
          "internalType": "enum EldoraDex.Side",
          "name": "side",
          "type": "uint8"
        },
        {
          "internalType": "bytes32",
          "name": "ticker",
          "type": "bytes32"
        }
      ],
      "name": "getOrders",
      "outputs": [
        {
          "components": [
            {
              "internalType": "uint256",
              "name": "id",
              "type": "uint256"
            },
            {
              "internalType": "uint256",
              "name": "price",
              "type": "uint256"
            },
            {
              "internalType": "uint256",
              "name": "amount",
              "type": "uint256"
            },
            {
              "internalType": "bytes32",
              "name": "ticker",
              "type": "bytes32"
            },
            {
              "internalType": "uint256",
              "name": "filled",
              "type": "uint256"
            },
            {
              "internalType": "enum EldoraDex.Side",
              "name": "side",
              "type": "uint8"
            },
            {
              "internalType": "address",
              "name": "trader",
              "type": "address"
            },
            {
              "internalType": "uint256",
              "name": "date",
              "type": "uint256"
            }
          ],
          "internalType": "struct EldoraDex.Order[]",
          "name": "",
          "type": "tuple[]"
        }
      ],
      "stateMutability": "view",
      "type": "function",
      "constant": true
    },
    {
      "inputs": [],
      "name": "getTokens",
      "outputs": [
        {
          "components": [
            {
              "internalType": "bytes32",
              "name": "ticker",
              "type": "bytes32"
            },
            {
              "internalType": "address",
              "name": "tokenAddress",
              "type": "address"
            }
          ],
          "internalType": "struct EldoraDex.Token[]",
          "name": "",
          "type": "tuple[]"
        }
      ],
      "stateMutability": "view",
      "type": "function",
      "constant": true
    }
  ],
  "bytecode": "0x608060405234801561001057600080fd5b50600480546001600160a01b0319163317905561211a806100326000396000f3fe608060405234801561001057600080fd5b50600436106100b45760003560e01c8063904194a311610071578063904194a3146101645780639776aacf1461018557806399ec2f1c14610198578063aa6ca808146101ab578063d15b223e146101c0578063f851a440146101d3576100b4565b80630bb431b6146100b957806326c6decb146100e95780634d12e34e146101095780636f3b62f91461012957806372ce957e1461013e5780638f97994b14610151575b600080fd5b6100cc6100c7366004611c62565b6101e8565b6040516100e0989796959493929190611ff2565b60405180910390f35b6100fc6100f7366004611c8d565b610264565b6040516100e09190611da6565b61011c610117366004611c1f565b6103b0565b6040516100e09190611e91565b61013c610137366004611cda565b6103d1565b005b61011c61014c366004611bd6565b610af7565b61013c61015f366004611d12565b610b14565b610177610172366004611c1f565b610c57565b6040516100e0929190611e9a565b61013c610193366004611c37565b610c79565b61013c6101a6366004611ca8565b610d1c565b6101b36118e4565b6040516100e09190611e46565b61013c6101ce366004611d12565b611a41565b6101db611b5a565b6040516100e09190611d55565b6002602052826000526040600020602052816000526040600020818154811061021057600080fd5b6000918252602090912060079091020180546001820154600283015460038401546004850154600586015460069096015494985092965090945092909160ff82169161010090046001600160a01b03169088565b600081815260026020526040812060609184600181111561029557634e487b7160e01b600052602160045260246000fd5b8152602001908152602001600020805480602002602001604051908101604052809291908181526020016000905b828210156103a457838290600052602060002090600702016040518061010001604052908160008201548152602001600182015481526020016002820154815260200160038201548152602001600482015481526020016005820160009054906101000a900460ff16600181111561034b57634e487b7160e01b600052602160045260246000fd5b600181111561036a57634e487b7160e01b600052602160045260246000fd5b8152600582015461010090046001600160a01b031660208083019190915260069092015460409091015290825260019290920191016102c3565b50505050905092915050565b600381815481106103c057600080fd5b600091825260209091200154905081565b60008381526020819052604090206001015483906001600160a01b03166104135760405162461bcd60e51b815260040161040a90611eb1565b60405180910390fd5b83634544414960e01b81141561043b5760405162461bcd60e51b815260040161040a90611fbd565b600186600181111561045d57634e487b7160e01b600052602160045260246000fd5b14156104a25733600090815260016020908152604080832088845290915290205484111561049d5760405162461bcd60e51b815260040161040a90611f18565b610514565b60008660018111156104c457634e487b7160e01b600052602160045260246000fd5b1415610514576104d48484611b69565b336000908152600160209081526040808320634544414960e01b845290915290205410156105145760405162461bcd60e51b815260040161040a90611f4f565b60008581526002602052604081208188600181111561054357634e487b7160e01b600052602160045260246000fd5b81526020019081526020016000209050806040518061010001604052806005548152602001868152602001878152602001888152602001600081526020018960018111156105a157634e487b7160e01b600052602160045260246000fd5b8152336020808301919091524260409283015283546001818101865560009586529482902084516007909202019081559083015181850155908201516002820155606082015160038201556080820151600482015560a0820151600582018054939492939192909160ff191690838181111561062d57634e487b7160e01b600052602160045260246000fd5b021790555060c08201516005820180546001600160a01b0390921661010002610100600160a81b031990921691909117905560e090910151600690910155805460009061067b576000610688565b8154610688906001611b7c565b90505b8015610adc578760018111156106b157634e487b7160e01b600052602160045260246000fd5b600114801561073457508181815481106106db57634e487b7160e01b600052603260045260246000fd5b90600052602060002090600702016001015482610702600184611b7c90919063ffffffff16565b8154811061072057634e487b7160e01b600052603260045260246000fd5b906000526020600020906007020160010154105b1561073e57610adc565b87600181111561075e57634e487b7160e01b600052602160045260246000fd5b1580156107df575081818154811061078657634e487b7160e01b600052603260045260246000fd5b906000526020600020906007020160010154826107ad600184611b7c90919063ffffffff16565b815481106107cb57634e487b7160e01b600052603260045260246000fd5b906000526020600020906007020160010154115b156107e957610adc565b6000826107f7836001611b7c565b8154811061081557634e487b7160e01b600052603260045260246000fd5b90600052602060002090600702016040518061010001604052908160008201548152602001600182015481526020016002820154815260200160038201548152602001600482015481526020016005820160009054906101000a900460ff16600181111561089357634e487b7160e01b600052602160045260246000fd5b60018111156108b257634e487b7160e01b600052602160045260246000fd5b8152600582015461010090046001600160a01b0316602082015260069091015460409091015283549091508390839081106108fd57634e487b7160e01b600052603260045260246000fd5b906000526020600020906007020183610920600185611b7c90919063ffffffff16565b8154811061093e57634e487b7160e01b600052603260045260246000fd5b60009182526020909120825460079092020190815560018083015481830155600280840154908301556003808401549083015560048084015490830155600580840154908301805460ff90921692909160ff19169083818111156109b257634e487b7160e01b600052602160045260246000fd5b02179055506005828101549082018054610100600160a81b031916610100928390046001600160a01b031690920291909117905560069182015491015582548190849084908110610a1357634e487b7160e01b600052603260045260246000fd5b9060005260206000209060070201600082015181600001556020820151816001015560408201518160020155606082015181600301556080820151816004015560a08201518160050160006101000a81548160ff02191690836001811115610a8b57634e487b7160e01b600052602160045260246000fd5b021790555060c08201516005820180546001600160a01b0390921661010002610100600160a81b031990921691909117905560e090910151600690910155610ad4826001611b7c565b91505061068b565b600554610aea906001611b88565b6005555050505050505050565b600160209081526000928352604080842090915290825290205481565b60008181526020819052604090206001015481906001600160a01b0316610b4d5760405162461bcd60e51b815260040161040a90611eb1565b336000908152600160209081526040808320858452909152902054831115610b875760405162461bcd60e51b815260040161040a90611f86565b336000908152600160209081526040808320858452909152902054610bac9084611b7c565b336000818152600160208181526040808420888552825280842095909555829052908390200154915163a9059cbb60e01b81526001600160a01b039092169163a9059cbb91610bff918790600401611d8d565b602060405180830381600087803b158015610c1957600080fd5b505af1158015610c2d573d6000803e3d6000fd5b505050506040513d601f19601f82011682018060405250810190610c519190611bff565b50505050565b600060208190529081526040902080546001909101546001600160a01b031682565b6004546001600160a01b03163314610ca35760405162461bcd60e51b815260040161040a90611ef4565b6040805180820182528381526001600160a01b0392831660208083019182526000868152908190529283209151825551600191820180546001600160a01b031916919094161790925560038054928301815590527fc2575a0e9e593c00f959f8c92f12db2869c3395a3b0502d05e2516446f71f85b0155565b60008281526020819052604090206001015482906001600160a01b0316610d555760405162461bcd60e51b815260040161040a90611eb1565b82634544414960e01b811415610d7d5760405162461bcd60e51b815260040161040a90611fbd565b6001856001811115610d9f57634e487b7160e01b600052602160045260246000fd5b1415610ddf57336000908152600160209081526040808320878452909152902054831115610ddf5760405162461bcd60e51b815260040161040a90611f18565b60008481526002602052604081208180886001811115610e0f57634e487b7160e01b600052602160045260246000fd5b14610e1b576000610e1e565b60015b6001811115610e3d57634e487b7160e01b600052602160045260246000fd5b815260200190815260200160002090506000808590505b825482108015610e645750600081115b156116aa576000610ee0848481548110610e8e57634e487b7160e01b600052603260045260246000fd5b906000526020600020906007020160040154858581548110610ec057634e487b7160e01b600052603260045260246000fd5b906000526020600020906007020160020154611b7c90919063ffffffff16565b90506000818311610ef15782610ef3565b815b9050610eff8382611b7c565b9250610f4581868681548110610f2557634e487b7160e01b600052603260045260246000fd5b906000526020600020906007020160040154611b8890919063ffffffff16565b858581548110610f6557634e487b7160e01b600052603260045260246000fd5b90600052602060002090600702016004018190555088336001600160a01b0316868681548110610fa557634e487b7160e01b600052603260045260246000fd5b906000526020600020906007020160050160019054906101000a90046001600160a01b03166001600160a01b03167f21bdad9437127fad804175b4c57aec4ceb260655210d786a6f05859844d68114426006548a8a8154811061101857634e487b7160e01b600052603260045260246000fd5b906000526020600020906007020160000154878c8c8154811061104b57634e487b7160e01b600052603260045260246000fd5b90600052602060002090600702016001015460405161106e959493929190612042565b60405180910390a460008a600181111561109857634e487b7160e01b600052602160045260246000fd5b14156113d1576110e28585815481106110c157634e487b7160e01b600052603260045260246000fd5b90600052602060002090600702016001015482611b6990919063ffffffff16565b336000908152600160209081526040808320634544414960e01b845290915290205410156111225760405162461bcd60e51b815260040161040a90611f4f565b3360009081526001602090815260408083208c84529091529020546111479082611b88565b3360009081526001602090815260408083208d845290915290205584546111d5906111ad9087908790811061118c57634e487b7160e01b600052603260045260246000fd5b90600052602060002090600702016001015483611b6990919063ffffffff16565b336000908152600160209081526040808320634544414960e01b845290915290205490611b7c565b336000908152600160208181526040808420634544414960e01b85529091528220929092558654611268928492909189908990811061122457634e487b7160e01b600052603260045260246000fd5b600091825260208083206007929092029091016005015461010090046001600160a01b0316835282810193909352604091820181208e825290925290205490611b7c565b6001600087878154811061128c57634e487b7160e01b600052603260045260246000fd5b600091825260208083206007929092029091016005015461010090046001600160a01b0316835282810193909352604091820181208d82529092529020558454611363906112f49087908790811061118c57634e487b7160e01b600052603260045260246000fd5b6001600088888154811061131857634e487b7160e01b600052603260045260246000fd5b600091825260208083206007929092029091016005015461010090046001600160a01b031683528281019390935260409182018120634544414960e01b825290925290205490611b88565b6001600087878154811061138757634e487b7160e01b600052603260045260246000fd5b600091825260208083206007929092029091016005015461010090046001600160a01b031683528281019390935260409182018120634544414960e01b8252909252902055611683565b60018a60018111156113f357634e487b7160e01b600052602160045260246000fd5b1415611683573360009081526001602090815260408083208c845290915290205461141e9082611b7c565b3360009081526001602090815260408083208d8452909152902055845461148b906114639087908790811061118c57634e487b7160e01b600052603260045260246000fd5b336000908152600160209081526040808320634544414960e01b845290915290205490611b88565b336000908152600160208181526040808420634544414960e01b8552909152822092909255865461151e92849290918990899081106114da57634e487b7160e01b600052603260045260246000fd5b600091825260208083206007929092029091016005015461010090046001600160a01b0316835282810193909352604091820181208e825290925290205490611b88565b6001600087878154811061154257634e487b7160e01b600052603260045260246000fd5b600091825260208083206007929092029091016005015461010090046001600160a01b0316835282810193909352604091820181208d82529092529020558454611619906115aa9087908790811061118c57634e487b7160e01b600052603260045260246000fd5b600160008888815481106115ce57634e487b7160e01b600052603260045260246000fd5b600091825260208083206007929092029091016005015461010090046001600160a01b031683528281019390935260409182018120634544414960e01b825290925290205490611b7c565b6001600087878154811061163d57634e487b7160e01b600052603260045260246000fd5b600091825260208083206007929092029091016005015461010090046001600160a01b031683528281019390935260409182018120634544414960e01b82529092529020555b61168e846001611b88565b60065490945061169f906001611b88565b60065550610e549050565b600091505b82548210801561172057508282815481106116da57634e487b7160e01b600052603260045260246000fd5b90600052602060002090600702016002015483838154811061170c57634e487b7160e01b600052603260045260246000fd5b906000526020600020906007020160040154145b156118da57815b83546117359060019061209c565b8110156118575783611748826001611b88565b8154811061176657634e487b7160e01b600052603260045260246000fd5b906000526020600020906007020184828154811061179457634e487b7160e01b600052603260045260246000fd5b60009182526020909120825460079092020190815560018083015481830155600280840154908301556003808401549083015560048084015490830155600580840154908301805460ff90921692909160ff191690838181111561180857634e487b7160e01b600052602160045260246000fd5b02179055506005828101549082018054610100600160a81b031916610100928390046001600160a01b0316909202919091179055600691820154910155611850816001611b88565b9050611727565b508280548061187657634e487b7160e01b600052603160045260246000fd5b60008281526020812060076000199093019283020181815560018181018390556002820183905560038201839055600482018390556005820180546001600160a81b031916905560069091019190915591556118d3908390611b88565b91506116af565b5050505050505050565b60035460609060009067ffffffffffffffff81111561191357634e487b7160e01b600052604160045260246000fd5b60405190808252806020026020018201604052801561194c57816020015b611939611b94565b8152602001906001900390816119315790505b50905060005b600354811015611a3b5760405180604001604052806000806003858154811061198b57634e487b7160e01b600052603260045260246000fd5b90600052602060002001548152602001908152602001600020600001548152602001600080600385815481106119d157634e487b7160e01b600052603260045260246000fd5b600091825260208083209091015483528201929092526040019020600101546001600160a01b031690528251839083908110611a1d57634e487b7160e01b600052603260045260246000fd5b60200260200101819052508080611a33906120b3565b915050611952565b50905090565b60008181526020819052604090206001015481906001600160a01b0316611a7a5760405162461bcd60e51b815260040161040a90611eb1565b600082815260208190526040908190206001015490516323b872dd60e01b81526001600160a01b03909116906323b872dd90611abe90339030908890600401611d69565b602060405180830381600087803b158015611ad857600080fd5b505af1158015611aec573d6000803e3d6000fd5b505050506040513d601f19601f82011682018060405250810190611b109190611bff565b50336000908152600160209081526040808320858452909152902054611b369084611b88565b33600090815260016020908152604080832095835294905292909220919091555050565b6004546001600160a01b031681565b6000611b75828461207d565b9392505050565b6000611b75828461209c565b6000611b758284612065565b604080518082019091526000808252602082015290565b80356001600160a01b0381168114611bc257600080fd5b919050565b803560028110611bc257600080fd5b60008060408385031215611be8578182fd5b611bf183611bab565b946020939093013593505050565b600060208284031215611c10578081fd5b81518015158114611b75578182fd5b600060208284031215611c30578081fd5b5035919050565b60008060408385031215611c49578182fd5b82359150611c5960208401611bab565b90509250929050565b600080600060608486031215611c76578081fd5b505081359360208301359350604090920135919050565b60008060408385031215611c9f578182fd5b611bf183611bc7565b600080600060608486031215611cbc578283fd5b611cc584611bc7565b95602085013595506040909401359392505050565b60008060008060808587031215611cef578081fd5b611cf885611bc7565b966020860135965060408601359560600135945092505050565b60008060408385031215611d24578182fd5b50508035926020909101359150565b60028110611d5157634e487b7160e01b600052602160045260246000fd5b9052565b6001600160a01b0391909116815260200190565b6001600160a01b039384168152919092166020820152604081019190915260600190565b6001600160a01b03929092168252602082015260400190565b602080825282518282018190526000919060409081850190868401855b82811015611e395781518051855286810151878601528581015186860152606080820151908601526080808201519086015260a080820151611e0782880182611d33565b505060c0818101516001600160a01b03169086015260e090810151908501526101009093019290850190600101611dc3565b5091979650505050505050565b602080825282518282018190526000919060409081850190868401855b82811015611e39578151805185528601516001600160a01b0316868501529284019290850190600101611e63565b90815260200190565b9182526001600160a01b0316602082015260400190565b60208082526023908201527f546f6b656e206d757374206265207472616461626c65206f6e20456c646f72616040820152620888ab60eb1b606082015260800190565b6020808252600a908201526927b7363c9030b236b4b760b11b604082015260600190565b60208082526018908201527f546f6b656e2062616c616e636520697320746f6f206c6f770000000000000000604082015260600190565b60208082526017908201527f454441492062616c616e636520697320746f6f206c6f77000000000000000000604082015260600190565b6020808252601c908201527f4163636f756e7427732062616c616e636520697320746f6f206c6f7700000000604082015260600190565b6020808252818101527f45444149206973206e6f7420616c6c6f77656420746f20626520747261646564604082015260600190565b60006101008201905089825288602083015287604083015286606083015285608083015261202360a0830186611d33565b6001600160a01b039390931660c082015260e001529695505050505050565b948552602085019390935260408401919091526060830152608082015260a00190565b60008219821115612078576120786120ce565b500190565b6000816000190483118215151615612097576120976120ce565b500290565b6000828210156120ae576120ae6120ce565b500390565b60006000198214156120c7576120c76120ce565b5060010190565b634e487b7160e01b600052601160045260246000fdfea2646970667358221220ee716b9e4f24ebb179ae2f399709562004461263f3df152b798ac7f79571ec1964736f6c63430008000033",
  "immutableReferences": {},
  "source": "pragma solidity >=0.4.21 <0.9.0;\n\nimport \"@openzeppelin/contracts/interfaces/IERC20.sol\";\nimport \"@openzeppelin/contracts/utils/math/SafeMath.sol\";\nimport \"@openzeppelin/contracts/utils/math/SignedSafeMath.sol\";\n\ncontract EldoraDex {\n\n    using SafeMath for uint;\n    using SignedSafeMath for int;\n\n    struct Token {\n        bytes32 ticker;\n        address tokenAddress;\n    }\n\n    struct Order {\n        uint id;\n        uint price;\n        uint amount;\n        bytes32 ticker;\n        uint filled;\n        Side side;\n        address trader;\n        uint date;\n    }\n\n    enum Side {\n        BUY,\n        SELL\n    }\n\n    event NewTrade (\n        uint date,\n        uint idTrade,\n        uint idOrder,\n        address indexed trader1,\n        address indexed trader2,\n        bytes32 indexed ticker,\n        uint amount,\n        uint price\n    );\n\n    mapping(bytes32 => Token) public tokens;\n    mapping(address => mapping(bytes32 => uint)) public traderBalances;\n    mapping(bytes32 => mapping(uint => Order[])) public orderBook;\n    bytes32[] public tokensList;\n    address public admin;\n    uint nextOrderId;\n    uint nextTradeId;\n    bytes32 constant EDAI = bytes32('EDAI');\n    \n    /*\n        Check if the token is tradeable on the exchange.\n     */\n\n    modifier tokenExistOnExchange(bytes32 ticker) {\n        require(tokens[ticker].tokenAddress != address(0), 'Token must be tradable on EldoraDEX');\n        _;\n    }\n\n    modifier tokenIsNotEldoraDai(bytes32 ticker) {\n        require(ticker != EDAI, 'EDAI is not allowed to be traded');\n        _;\n    }\n\n    modifier onlyAdmin() {\n        require(msg.sender == admin, 'Only admin' );\n        _;\n    }\n\n    constructor() {\n        admin = msg.sender;\n    }\n\n    function depositTokens(uint amount, bytes32 ticker) tokenExistOnExchange (ticker) external { \n        IERC20(tokens[ticker].tokenAddress).transferFrom(msg.sender, address(this), amount);\n        traderBalances[msg.sender][ticker] = traderBalances[msg.sender][ticker].add(amount);\n    }\n\n    function withdrawTokens(uint amount, bytes32 ticker) tokenExistOnExchange(ticker) external {\n        require(traderBalances[msg.sender][ticker] >= amount, \"Account's balance is too low\");\n        traderBalances[msg.sender][ticker] = traderBalances[msg.sender][ticker].sub(amount);\n        IERC20(tokens[ticker].tokenAddress).transfer(msg.sender, amount);\n    }\n\n    /* Add new ERC20 Token to the exchange */\n\n    function addToken(\n        bytes32 ticker,\n        address tokenAddress\n        ) onlyAdmin() external {\n        tokens[ticker] = Token(ticker, tokenAddress);\n        tokensList.push(ticker);\n    }\n\n    /* \n        Create a LIMIT buy or sell order and push it to the order book.\n    */\n\n    function createLimitOrder(Side side, bytes32 ticker, uint amount, uint price) \n    tokenExistOnExchange(ticker) \n    tokenIsNotEldoraDai(ticker) external {\n        if (side == Side.SELL) {\n            require(traderBalances[msg.sender][ticker] >= amount, \"Token balance is too low\");\n        }\n        else if (side == Side.BUY) {\n            require(traderBalances[msg.sender][EDAI] >= amount.mul(price), \"EDAI balance is too low\");\n        }\n        Order[] storage orders = orderBook[ticker][uint(side)];\n        orders.push(Order(\n            nextOrderId,\n            price,\n            amount,\n            ticker,\n            0,\n            side,\n            msg.sender,\n            block.timestamp\n        ));\n        uint index = orders.length > 0 ? orders.length.sub(1) : 0;\n        while (index > 0) {\n            if (Side.SELL == side && orders[index.sub(1)].price < orders[index].price) {\n                break;\n            }\n            else if (Side.BUY == side && orders[index.sub(1)].price > orders[index].price) {\n                break;\n            }\n            Order memory previousOrder = orders[index.sub(1)];\n            orders[index.sub(1)] = orders[index]; \n            orders[index] = previousOrder;\n            index = index.sub(1);\n        }\n        nextOrderId = nextOrderId.add(1);\n    }\n\n    /*\n        Create a buy or sell MARKET order. Also delete filled orders from the order book. \n     */\n\n    function createMarketOrder(Side side, bytes32 ticker, uint amount) \n    tokenExistOnExchange(ticker)\n    tokenIsNotEldoraDai(ticker) external {\n        if (side == Side.SELL) {\n            require(traderBalances[msg.sender][ticker] >= amount, \"Token balance is too low\");\n        }\n        Order[] storage orders = orderBook[ticker][uint(side == Side.BUY ? Side.SELL : Side.BUY)];\n        uint index;\n        uint remainingMarketOrderAmount = amount;\n\n        while (index < orders.length && remainingMarketOrderAmount > 0) {\n            uint availableLimitOrderAmount = orders[index].amount.sub(orders[index].filled);\n            uint matchedAmount = remainingMarketOrderAmount > availableLimitOrderAmount \n            ? availableLimitOrderAmount : remainingMarketOrderAmount;\n            remainingMarketOrderAmount = remainingMarketOrderAmount.sub(matchedAmount);\n            orders[index].filled = orders[index].filled.add(matchedAmount);\n\n            emit NewTrade(\n                block.timestamp,\n                nextTradeId,\n                orders[index].id,\n                orders[index].trader,\n                msg.sender,\n                ticker,\n                matchedAmount,\n                orders[index].price\n            );\n\n            if (side == Side.BUY) {\n                require(traderBalances[msg.sender][EDAI] >= matchedAmount.mul(orders[index].price), 'EDAI balance is too low');\n                traderBalances[msg.sender][ticker] = traderBalances[msg.sender][ticker]\n                    .add(matchedAmount);\n                traderBalances[msg.sender][EDAI] = traderBalances[msg.sender][EDAI]\n                    .sub(matchedAmount.mul(orders[index].price));\n                traderBalances[orders[index].trader][ticker] = traderBalances[orders[index].trader][ticker]\n                    .sub(matchedAmount);\n                traderBalances[orders[index].trader][EDAI] = traderBalances[orders[index].trader][EDAI]\n                    .add(matchedAmount.mul(orders[index].price));\n            }\n            else if (side == Side.SELL) {\n                traderBalances[msg.sender][ticker] = traderBalances[msg.sender][ticker]\n                    .sub(matchedAmount);\n                traderBalances[msg.sender][EDAI] = traderBalances[msg.sender][EDAI]\n                    .add(matchedAmount.mul(orders[index].price));\n                traderBalances[orders[index].trader][ticker] = traderBalances[orders[index].trader][ticker]\n                    .add(matchedAmount);\n                traderBalances[orders[index].trader][EDAI] = traderBalances[orders[index].trader][EDAI]\n                    .sub(matchedAmount.mul(orders[index].price));\n            }\n            index = index.add(1);\n            nextTradeId = nextTradeId.add(1);\n        }\n\n        index = 0;\n        while (index < orders.length && orders[index].filled == orders[index].amount) {\n            for (uint swapIndex = index; swapIndex < orders.length - 1; swapIndex = swapIndex.add(1)) {\n                orders[swapIndex] = orders[swapIndex.add(1)];\n            }\n            orders.pop();\n            index = index.add(1);\n        }\n    }\n\n    function getOrders(Side side, bytes32 ticker) external view returns(Order[] memory) {\n        return orderBook[ticker][uint(side)];\n    }\n\n    function getTokens() external view returns(Token[] memory) {\n      Token[] memory _tokens = new Token[](tokensList.length);\n      for (uint i = 0; i < tokensList.length; i++) {\n        _tokens[i] = Token(\n          tokens[tokensList[i]].ticker,\n          tokens[tokensList[i]].tokenAddress\n        );\n      }\n      return _tokens;\n    }\n}",
  "sourcePath": "/home/asap-segfault/dApps-Portfolio/decentralizedExchange/back/contracts/EldoraDex.sol",
  "compiler": {
    "name": "solc",
    "version": "0.8.0+commit.c7dfd78e.Emscripten.clang"
  },
  "schemaVersion": "3.4.4",
  "updatedAt": "2022-01-05T21:26:15.001Z",
  "networkType": "ethereum",
  "devdoc": {
    "kind": "dev",
    "methods": {},
    "version": 1
  },
  "userdoc": {
    "kind": "user",
    "methods": {},
    "version": 1
  }
}