{
    "contractName": "EldoraDAI",
    "abi": [
        {
            "inputs": [],
            "stateMutability": "nonpayable",
            "type": "constructor"
        },
        {
            "anonymous": false,
            "inputs": [
                {
                    "indexed": true,
                    "internalType": "address",
                    "name": "owner",
                    "type": "address"
                },
                {
                    "indexed": true,
                    "internalType": "address",
                    "name": "spender",
                    "type": "address"
                },
                {
                    "indexed": false,
                    "internalType": "uint256",
                    "name": "value",
                    "type": "uint256"
                }
            ],
            "name": "Approval",
            "type": "event"
        },
        {
            "anonymous": false,
            "inputs": [
                {
                    "indexed": true,
                    "internalType": "address",
                    "name": "from",
                    "type": "address"
                },
                {
                    "indexed": true,
                    "internalType": "address",
                    "name": "to",
                    "type": "address"
                },
                {
                    "indexed": false,
                    "internalType": "uint256",
                    "name": "value",
                    "type": "uint256"
                }
            ],
            "name": "Transfer",
            "type": "event"
        },
        {
            "inputs": [
                {
                    "internalType": "address",
                    "name": "owner",
                    "type": "address"
                },
                {
                    "internalType": "address",
                    "name": "spender",
                    "type": "address"
                }
            ],
            "name": "allowance",
            "outputs": [
                {
                    "internalType": "uint256",
                    "name": "",
                    "type": "uint256"
                }
            ],
            "stateMutability": "view",
            "type": "function",
            "constant": true
        },
        {
            "inputs": [
                {
                    "internalType": "address",
                    "name": "spender",
                    "type": "address"
                },
                {
                    "internalType": "uint256",
                    "name": "amount",
                    "type": "uint256"
                }
            ],
            "name": "approve",
            "outputs": [
                {
                    "internalType": "bool",
                    "name": "",
                    "type": "bool"
                }
            ],
            "stateMutability": "nonpayable",
            "type": "function"
        },
        {
            "inputs": [
                {
                    "internalType": "address",
                    "name": "account",
                    "type": "address"
                }
            ],
            "name": "balanceOf",
            "outputs": [
                {
                    "internalType": "uint256",
                    "name": "",
                    "type": "uint256"
                }
            ],
            "stateMutability": "view",
            "type": "function",
            "constant": true
        },
        {
            "inputs": [],
            "name": "decimals",
            "outputs": [
                {
                    "internalType": "uint8",
                    "name": "",
                    "type": "uint8"
                }
            ],
            "stateMutability": "view",
            "type": "function",
            "constant": true
        },
        {
            "inputs": [
                {
                    "internalType": "address",
                    "name": "spender",
                    "type": "address"
                },
                {
                    "internalType": "uint256",
                    "name": "subtractedValue",
                    "type": "uint256"
                }
            ],
            "name": "decreaseAllowance",
            "outputs": [
                {
                    "internalType": "bool",
                    "name": "",
                    "type": "bool"
                }
            ],
            "stateMutability": "nonpayable",
            "type": "function"
        },
        {
            "inputs": [
                {
                    "internalType": "address",
                    "name": "spender",
                    "type": "address"
                },
                {
                    "internalType": "uint256",
                    "name": "addedValue",
                    "type": "uint256"
                }
            ],
            "name": "increaseAllowance",
            "outputs": [
                {
                    "internalType": "bool",
                    "name": "",
                    "type": "bool"
                }
            ],
            "stateMutability": "nonpayable",
            "type": "function"
        },
        {
            "inputs": [],
            "name": "name",
            "outputs": [
                {
                    "internalType": "string",
                    "name": "",
                    "type": "string"
                }
            ],
            "stateMutability": "view",
            "type": "function",
            "constant": true
        },
        {
            "inputs": [],
            "name": "symbol",
            "outputs": [
                {
                    "internalType": "string",
                    "name": "",
                    "type": "string"
                }
            ],
            "stateMutability": "view",
            "type": "function",
            "constant": true
        },
        {
            "inputs": [],
            "name": "totalSupply",
            "outputs": [
                {
                    "internalType": "uint256",
                    "name": "",
                    "type": "uint256"
                }
            ],
            "stateMutability": "view",
            "type": "function",
            "constant": true
        },
        {
            "inputs": [
                {
                    "internalType": "address",
                    "name": "recipient",
                    "type": "address"
                },
                {
                    "internalType": "uint256",
                    "name": "amount",
                    "type": "uint256"
                }
            ],
            "name": "transfer",
            "outputs": [
                {
                    "internalType": "bool",
                    "name": "",
                    "type": "bool"
                }
            ],
            "stateMutability": "nonpayable",
            "type": "function"
        },
        {
            "inputs": [
                {
                    "internalType": "address",
                    "name": "sender",
                    "type": "address"
                },
                {
                    "internalType": "address",
                    "name": "recipient",
                    "type": "address"
                },
                {
                    "internalType": "uint256",
                    "name": "amount",
                    "type": "uint256"
                }
            ],
            "name": "transferFrom",
            "outputs": [
                {
                    "internalType": "bool",
                    "name": "",
                    "type": "bool"
                }
            ],
            "stateMutability": "nonpayable",
            "type": "function"
        },
        {
            "inputs": [
                {
                    "internalType": "address",
                    "name": "to",
                    "type": "address"
                },
                {
                    "internalType": "uint256",
                    "name": "amount",
                    "type": "uint256"
                }
            ],
            "name": "faucet",
            "outputs": [],
            "stateMutability": "nonpayable",
            "type": "function"
        }
    ],
    "bytecode": "0x608060405234801561001057600080fd5b5060408051808201825260048152634544414960e01b60208083019182528351808501909452600d84526c456c646f72616465782064616960981b9084015281519192916100609160039161007c565b50805161007490600490602084019061007c565b505050610150565b82805461008890610115565b90600052602060002090601f0160209004810192826100aa57600085556100f0565b82601f106100c357805160ff19168380011785556100f0565b828001600101855582156100f0579182015b828111156100f05782518255916020019190600101906100d5565b506100fc929150610100565b5090565b5b808211156100fc5760008155600101610101565b60028104600182168061012957607f821691505b6020821081141561014a57634e487b7160e01b600052602260045260246000fd5b50919050565b610ae68061015f6000396000f3fe608060405234801561001057600080fd5b50600436106100b45760003560e01c806370a082311161007157806370a08231146101475780637b56c2b21461015a57806395d89b411461016f578063a457c2d714610177578063a9059cbb1461018a578063dd62ed3e1461019d576100b4565b806306fdde03146100b9578063095ea7b3146100d757806318160ddd146100f757806323b872dd1461010c578063313ce5671461011f5780633950935114610134575b600080fd5b6100c16101b0565b6040516100ce91906107cf565b60405180910390f35b6100ea6100e536600461079b565b610242565b6040516100ce91906107c4565b6100ff61025f565b6040516100ce9190610a3a565b6100ea61011a366004610760565b610265565b6101276102fe565b6040516100ce9190610a43565b6100ea61014236600461079b565b610303565b6100ff61015536600461070d565b610357565b61016d61016836600461079b565b610376565b005b6100c1610384565b6100ea61018536600461079b565b610393565b6100ea61019836600461079b565b61040c565b6100ff6101ab36600461072e565b610420565b6060600380546101bf90610a75565b80601f01602080910402602001604051908101604052809291908181526020018280546101eb90610a75565b80156102385780601f1061020d57610100808354040283529160200191610238565b820191906000526020600020905b81548152906001019060200180831161021b57829003601f168201915b5050505050905090565b600061025661024f61044b565b848461044f565b50600192915050565b60025490565b6000610272848484610503565b6001600160a01b03841660009081526001602052604081208161029361044b565b6001600160a01b03166001600160a01b03168152602001908152602001600020549050828110156102df5760405162461bcd60e51b81526004016102d6906108ed565b60405180910390fd5b6102f3856102eb61044b565b85840361044f565b506001949350505050565b601290565b600061025661031061044b565b84846001600061031e61044b565b6001600160a01b03908116825260208083019390935260409182016000908120918b16815292529020546103529190610a51565b61044f565b6001600160a01b0381166000908152602081905260409020545b919050565b610380828261062d565b5050565b6060600480546101bf90610a75565b600080600160006103a261044b565b6001600160a01b03908116825260208083019390935260409182016000908120918816815292529020549050828110156103ee5760405162461bcd60e51b81526004016102d6906109be565b6104026103f961044b565b8585840361044f565b5060019392505050565b600061025661041961044b565b8484610503565b6001600160a01b03918216600090815260016020908152604080832093909416825291909152205490565b3390565b6001600160a01b0383166104755760405162461bcd60e51b81526004016102d69061097a565b6001600160a01b03821661049b5760405162461bcd60e51b81526004016102d690610865565b6001600160a01b0380841660008181526001602090815260408083209487168084529490915290819020849055517f8c5be1e5ebec7d5bd14f71427d1e84f3dd0314c0f7b2291e5b200ac8c7c3b925906104f6908590610a3a565b60405180910390a3505050565b6001600160a01b0383166105295760405162461bcd60e51b81526004016102d690610935565b6001600160a01b03821661054f5760405162461bcd60e51b81526004016102d690610822565b61055a8383836106f1565b6001600160a01b038316600090815260208190526040902054818110156105935760405162461bcd60e51b81526004016102d6906108a7565b6001600160a01b038085166000908152602081905260408082208585039055918516815290812080548492906105ca908490610a51565b92505081905550826001600160a01b0316846001600160a01b03167fddf252ad1be2c89b69c2b068fc378daa952ba7f163c4a11628f55a4df523b3ef846040516106149190610a3a565b60405180910390a36106278484846106f1565b50505050565b6001600160a01b0382166106535760405162461bcd60e51b81526004016102d690610a03565b61065f600083836106f1565b80600260008282546106719190610a51565b90915550506001600160a01b0382166000908152602081905260408120805483929061069e908490610a51565b90915550506040516001600160a01b038316906000907fddf252ad1be2c89b69c2b068fc378daa952ba7f163c4a11628f55a4df523b3ef906106e1908590610a3a565b60405180910390a3610380600083835b505050565b80356001600160a01b038116811461037157600080fd5b60006020828403121561071e578081fd5b610727826106f6565b9392505050565b60008060408385031215610740578081fd5b610749836106f6565b9150610757602084016106f6565b90509250929050565b600080600060608486031215610774578081fd5b61077d846106f6565b925061078b602085016106f6565b9150604084013590509250925092565b600080604083850312156107ad578182fd5b6107b6836106f6565b946020939093013593505050565b901515815260200190565b6000602080835283518082850152825b818110156107fb578581018301518582016040015282016107df565b8181111561080c5783604083870101525b50601f01601f1916929092016040019392505050565b60208082526023908201527f45524332303a207472616e7366657220746f20746865207a65726f206164647260408201526265737360e81b606082015260800190565b60208082526022908201527f45524332303a20617070726f766520746f20746865207a65726f206164647265604082015261737360f01b606082015260800190565b60208082526026908201527f45524332303a207472616e7366657220616d6f756e7420657863656564732062604082015265616c616e636560d01b606082015260800190565b60208082526028908201527f45524332303a207472616e7366657220616d6f756e74206578636565647320616040820152676c6c6f77616e636560c01b606082015260800190565b60208082526025908201527f45524332303a207472616e736665722066726f6d20746865207a65726f206164604082015264647265737360d81b606082015260800190565b60208082526024908201527f45524332303a20617070726f76652066726f6d20746865207a65726f206164646040820152637265737360e01b606082015260800190565b60208082526025908201527f45524332303a2064656372656173656420616c6c6f77616e63652062656c6f77604082015264207a65726f60d81b606082015260800190565b6020808252601f908201527f45524332303a206d696e7420746f20746865207a65726f206164647265737300604082015260600190565b90815260200190565b60ff91909116815260200190565b60008219821115610a7057634e487b7160e01b81526011600452602481fd5b500190565b600281046001821680610a8957607f821691505b60208210811415610aaa57634e487b7160e01b600052602260045260246000fd5b5091905056fea26469706673582212204415441fc9ca832100e7d1dbd631b2e0eeb18abd9a22aedb4128fd0af417f10064736f6c63430008000033",
    "immutableReferences": {},
    "source": "pragma solidity >=0.4.21 <0.9.0;\n\nimport \"@openzeppelin/contracts/token/ERC20/ERC20.sol\";\n\ncontract EldoraDAI is ERC20 {\n    constructor() ERC20('EDAI', 'Eldoradex dai') {}\n\n      function faucet(address to, uint amount) external {\n        _mint(to, amount);\n    }\n}",
    "sourcePath": "/home/asap-segfault/dApps-Portfolio/decentralizedExchange/back/contracts/EldoraDAI.sol",
    "compiler": {
        "name": "solc",
        "version": "0.8.0+commit.c7dfd78e.Emscripten.clang"
    },
    "schemaVersion": "3.4.4",
    "updatedAt": "2022-04-22T04:10:10.879Z",
    "networkType": "ethereum",
    "devdoc": {
        "kind": "dev",
        "methods": {
            "allowance(address,address)": {
                "details": "See {IERC20-allowance}."
            },
            "approve(address,uint256)": {
                "details": "See {IERC20-approve}. Requirements: - `spender` cannot be the zero address."
            },
            "balanceOf(address)": {
                "details": "See {IERC20-balanceOf}."
            },
            "decimals()": {
                "details": "Returns the number of decimals used to get its user representation. For example, if `decimals` equals `2`, a balance of `505` tokens should be displayed to a user as `5.05` (`505 / 10 ** 2`). Tokens usually opt for a value of 18, imitating the relationship between Ether and Wei. This is the value {ERC20} uses, unless this function is overridden; NOTE: This information is only used for _display_ purposes: it in no way affects any of the arithmetic of the contract, including {IERC20-balanceOf} and {IERC20-transfer}."
            },
            "decreaseAllowance(address,uint256)": {
                "details": "Atomically decreases the allowance granted to `spender` by the caller. This is an alternative to {approve} that can be used as a mitigation for problems described in {IERC20-approve}. Emits an {Approval} event indicating the updated allowance. Requirements: - `spender` cannot be the zero address. - `spender` must have allowance for the caller of at least `subtractedValue`."
            },
            "increaseAllowance(address,uint256)": {
                "details": "Atomically increases the allowance granted to `spender` by the caller. This is an alternative to {approve} that can be used as a mitigation for problems described in {IERC20-approve}. Emits an {Approval} event indicating the updated allowance. Requirements: - `spender` cannot be the zero address."
            },
            "name()": {
                "details": "Returns the name of the token."
            },
            "symbol()": {
                "details": "Returns the symbol of the token, usually a shorter version of the name."
            },
            "totalSupply()": {
                "details": "See {IERC20-totalSupply}."
            },
            "transfer(address,uint256)": {
                "details": "See {IERC20-transfer}. Requirements: - `recipient` cannot be the zero address. - the caller must have a balance of at least `amount`."
            },
            "transferFrom(address,address,uint256)": {
                "details": "See {IERC20-transferFrom}. Emits an {Approval} event indicating the updated allowance. This is not required by the EIP. See the note at the beginning of {ERC20}. Requirements: - `sender` and `recipient` cannot be the zero address. - `sender` must have a balance of at least `amount`. - the caller must have allowance for ``sender``'s tokens of at least `amount`."
            }
        },
        "version": 1
    },
    "userdoc": {
        "kind": "user",
        "methods": {},
        "version": 1
    }
}