{
  "contractName": "multiSigWallet",
  "abi": [
    {
      "inputs": [
        {
          "internalType": "address[]",
          "name": "_approvers",
          "type": "address[]"
        },
        {
          "internalType": "uint256",
          "name": "_quorum",
          "type": "uint256"
        }
      ],
      "stateMutability": "nonpayable",
      "type": "constructor"
    },
    {
      "inputs": [
        {
          "internalType": "address",
          "name": "",
          "type": "address"
        },
        {
          "internalType": "uint256",
          "name": "",
          "type": "uint256"
        }
      ],
      "name": "approvals",
      "outputs": [
        {
          "internalType": "bool",
          "name": "",
          "type": "bool"
        }
      ],
      "stateMutability": "view",
      "type": "function",
      "constant": true
    },
    {
      "inputs": [
        {
          "internalType": "uint256",
          "name": "",
          "type": "uint256"
        }
      ],
      "name": "approvers",
      "outputs": [
        {
          "internalType": "address",
          "name": "",
          "type": "address"
        }
      ],
      "stateMutability": "view",
      "type": "function",
      "constant": true
    },
    {
      "inputs": [],
      "name": "quorum",
      "outputs": [
        {
          "internalType": "uint256",
          "name": "",
          "type": "uint256"
        }
      ],
      "stateMutability": "view",
      "type": "function",
      "constant": true
    },
    {
      "inputs": [
        {
          "internalType": "uint256",
          "name": "",
          "type": "uint256"
        }
      ],
      "name": "transfers",
      "outputs": [
        {
          "internalType": "uint256",
          "name": "id",
          "type": "uint256"
        },
        {
          "internalType": "uint256",
          "name": "amount",
          "type": "uint256"
        },
        {
          "internalType": "uint256",
          "name": "approvals",
          "type": "uint256"
        },
        {
          "internalType": "bool",
          "name": "is_sent",
          "type": "bool"
        },
        {
          "internalType": "address payable",
          "name": "to",
          "type": "address"
        }
      ],
      "stateMutability": "view",
      "type": "function",
      "constant": true
    },
    {
      "stateMutability": "payable",
      "type": "receive",
      "payable": true
    },
    {
      "inputs": [],
      "name": "getApprovers",
      "outputs": [
        {
          "internalType": "address[]",
          "name": "",
          "type": "address[]"
        }
      ],
      "stateMutability": "view",
      "type": "function",
      "constant": true
    },
    {
      "inputs": [],
      "name": "getTransfers",
      "outputs": [
        {
          "components": [
            {
              "internalType": "uint256",
              "name": "id",
              "type": "uint256"
            },
            {
              "internalType": "uint256",
              "name": "amount",
              "type": "uint256"
            },
            {
              "internalType": "uint256",
              "name": "approvals",
              "type": "uint256"
            },
            {
              "internalType": "bool",
              "name": "is_sent",
              "type": "bool"
            },
            {
              "internalType": "address payable",
              "name": "to",
              "type": "address"
            }
          ],
          "internalType": "struct multiSigWallet.Transfer[]",
          "name": "",
          "type": "tuple[]"
        }
      ],
      "stateMutability": "view",
      "type": "function",
      "constant": true
    },
    {
      "inputs": [
        {
          "internalType": "uint256",
          "name": "id",
          "type": "uint256"
        }
      ],
      "name": "approveTransfer",
      "outputs": [],
      "stateMutability": "nonpayable",
      "type": "function"
    },
    {
      "inputs": [
        {
          "internalType": "address payable",
          "name": "_to",
          "type": "address"
        },
        {
          "internalType": "uint256",
          "name": "_amount",
          "type": "uint256"
        }
      ],
      "name": "transferEther",
      "outputs": [],
      "stateMutability": "nonpayable",
      "type": "function"
    }
  ],
  "bytecode": "0x60806040523480156200001157600080fd5b506040516200131b3803806200131b8339818101604052620000379190810190620001ef565b81600090805190602001906200004f9291906200005f565b5080600181905550505062000312565b828054828255906000526020600020908101928215620000db579160200282015b82811115620000da5782518260006101000a81548173ffffffffffffffffffffffffffffffffffffffff021916908373ffffffffffffffffffffffffffffffffffffffff1602179055509160200191906001019062000080565b5b509050620000ea9190620000ee565b5090565b6200013191905b808211156200012d57600081816101000a81549073ffffffffffffffffffffffffffffffffffffffff021916905550600101620000f5565b5090565b90565b6000815190506200014581620002de565b92915050565b600082601f8301126200015d57600080fd5b8151620001746200016e8262000277565b62000249565b915081818352602084019350602081019050838560208402820111156200019a57600080fd5b60005b83811015620001ce5781620001b3888262000134565b8452602084019350602083019250506001810190506200019d565b5050505092915050565b600081519050620001e981620002f8565b92915050565b600080604083850312156200020357600080fd5b600083015167ffffffffffffffff8111156200021e57600080fd5b6200022c858286016200014b565b92505060206200023f85828601620001d8565b9150509250929050565b6000604051905081810181811067ffffffffffffffff821117156200026d57600080fd5b8060405250919050565b600067ffffffffffffffff8211156200028f57600080fd5b602082029050602081019050919050565b6000620002ad82620002b4565b9050919050565b600073ffffffffffffffffffffffffffffffffffffffff82169050919050565b6000819050919050565b620002e981620002a0565b8114620002f557600080fd5b50565b6200030381620002d4565b81146200030f57600080fd5b50565b610ff980620003226000396000f3fe60806040526004361061007f5760003560e01c80639377d7111161004e5780639377d71114610135578063cacca4a014610176578063d3650fb81461019f578063ffabc673146101dc57610086565b806305b1137b1461008b5780631703a018146100b45780632f65142c146100df5780636cb3e8ef1461010a57610086565b3661008657005b600080fd5b34801561009757600080fd5b506100b260048036036100ad9190810190610a2c565b610219565b005b3480156100c057600080fd5b506100c96103f3565b6040516100d69190610e33565b60405180910390f35b3480156100eb57600080fd5b506100f46103f9565b6040516101019190610d96565b60405180910390f35b34801561011657600080fd5b5061011f6104e7565b60405161012c9190610d74565b60405180910390f35b34801561014157600080fd5b5061015c60048036036101579190810190610aa4565b610575565b60405161016d959493929190610e4e565b60405180910390f35b34801561018257600080fd5b5061019d60048036036101989190810190610aa4565b6105e5565b005b3480156101ab57600080fd5b506101c660048036036101c19190810190610aa4565b610982565b6040516101d39190610d59565b60405180910390f35b3480156101e857600080fd5b5061020360048036036101fe9190810190610a68565b6109be565b6040516102109190610db8565b60405180910390f35b600080905060008090505b6000805490508110156102ae573373ffffffffffffffffffffffffffffffffffffffff166000828154811061025557fe5b9060005260206000200160009054906101000a900473ffffffffffffffffffffffffffffffffffffffff1673ffffffffffffffffffffffffffffffffffffffff1614156102a157600191505b8080600101915050610224565b5060011515811515146102f6576040517f08c379a00000000000000000000000000000000000000000000000000000000081526004016102ed90610dd3565b60405180910390fd5b60026040518060a001604052806002805490508152602001848152602001600081526020016000151581526020018573ffffffffffffffffffffffffffffffffffffffff16815250908060018154018082558091505060019003906000526020600020906004020160009091909190915060008201518160000155602082015181600101556040820151816002015560608201518160030160006101000a81548160ff02191690831515021790555060808201518160030160016101000a81548173ffffffffffffffffffffffffffffffffffffffff021916908373ffffffffffffffffffffffffffffffffffffffff1602179055505050505050565b60015481565b60606002805480602002602001604051908101604052809291908181526020016000905b828210156104de57838290600052602060002090600402016040518060a00160405290816000820154815260200160018201548152602001600282015481526020016003820160009054906101000a900460ff161515151581526020016003820160019054906101000a900473ffffffffffffffffffffffffffffffffffffffff1673ffffffffffffffffffffffffffffffffffffffff1673ffffffffffffffffffffffffffffffffffffffff16815250508152602001906001019061041d565b50505050905090565b6060600080548060200260200160405190810160405280929190818152602001828054801561056b57602002820191906000526020600020905b8160009054906101000a900473ffffffffffffffffffffffffffffffffffffffff1673ffffffffffffffffffffffffffffffffffffffff1681526020019060010190808311610521575b5050505050905090565b6002818154811061058257fe5b90600052602060002090600402016000915090508060000154908060010154908060020154908060030160009054906101000a900460ff16908060030160019054906101000a900473ffffffffffffffffffffffffffffffffffffffff16905085565b600080905060008090505b60008054905081101561067a573373ffffffffffffffffffffffffffffffffffffffff166000828154811061062157fe5b9060005260206000200160009054906101000a900473ffffffffffffffffffffffffffffffffffffffff1673ffffffffffffffffffffffffffffffffffffffff16141561066d57600191505b80806001019150506105f0565b5060011515811515146106c2576040517f08c379a00000000000000000000000000000000000000000000000000000000081526004016106b990610dd3565b60405180910390fd5b60001515600283815481106106d357fe5b906000526020600020906004020160030160009054906101000a900460ff16151514610734576040517f08c379a000000000000000000000000000000000000000000000000000000000815260040161072b90610e13565b60405180910390fd5b60001515600360003373ffffffffffffffffffffffffffffffffffffffff1673ffffffffffffffffffffffffffffffffffffffff168152602001908152602001600020600084815260200190815260200160002060009054906101000a900460ff161515146107d8576040517f08c379a00000000000000000000000000000000000000000000000000000000081526004016107cf90610df3565b60405180910390fd5b6001600360003373ffffffffffffffffffffffffffffffffffffffff1673ffffffffffffffffffffffffffffffffffffffff168152602001908152602001600020600084815260200190815260200160002060006101000a81548160ff0219169083151502179055506002828154811061084e57fe5b9060005260206000209060040201600201600081548092919060010191905055506001546002838154811061087f57fe5b906000526020600020906004020160020154111561097e576001600283815481106108a657fe5b906000526020600020906004020160030160006101000a81548160ff0219169083151502179055506000600283815481106108dd57fe5b906000526020600020906004020160030160019054906101000a900473ffffffffffffffffffffffffffffffffffffffff16905060006002848154811061092057fe5b90600052602060002090600402016001015490508173ffffffffffffffffffffffffffffffffffffffff166108fc829081150290604051600060405180830381858888f1935050505015801561097a573d6000803e3d6000fd5b5050505b5050565b6000818154811061098f57fe5b906000526020600020016000915054906101000a900473ffffffffffffffffffffffffffffffffffffffff1681565b60036020528160005260406000206020528060005260406000206000915091509054906101000a900460ff1681565b6000813590506109fc81610f7e565b92915050565b600081359050610a1181610f95565b92915050565b600081359050610a2681610fac565b92915050565b60008060408385031215610a3f57600080fd5b6000610a4d85828601610a02565b9250506020610a5e85828601610a17565b9150509250929050565b60008060408385031215610a7b57600080fd5b6000610a89858286016109ed565b9250506020610a9a85828601610a17565b9150509250929050565b600060208284031215610ab657600080fd5b6000610ac484828501610a17565b91505092915050565b6000610ad98383610b1b565b60208301905092915050565b6000610af18383610cd3565b60a08301905092915050565b610b0681610f36565b82525050565b610b1581610f36565b82525050565b610b2481610f24565b82525050565b610b3381610f24565b82525050565b6000610b4482610ec1565b610b4e8185610ef1565b9350610b5983610ea1565b8060005b83811015610b8a578151610b718882610acd565b9750610b7c83610ed7565b925050600181019050610b5d565b5085935050505092915050565b6000610ba282610ecc565b610bac8185610f02565b9350610bb783610eb1565b8060005b83811015610be8578151610bcf8882610ae5565b9750610bda83610ee4565b925050600181019050610bbb565b5085935050505092915050565b610bfe81610f48565b82525050565b610c0d81610f48565b82525050565b6000610c20602083610f13565b91507f4f6e6c7920617070726f766572732061646472657373657320616c6c6f7765646000830152602082019050919050565b6000610c60601983610f13565b91507f7472616e7366657220616c726561647920617070726f766564000000000000006000830152602082019050919050565b6000610ca0601583610f13565b91507f7472616e7366657220616c72656164792073656e7400000000000000000000006000830152602082019050919050565b60a082016000820151610ce96000850182610d3b565b506020820151610cfc6020850182610d3b565b506040820151610d0f6040850182610d3b565b506060820151610d226060850182610bf5565b506080820151610d356080850182610afd565b50505050565b610d4481610f74565b82525050565b610d5381610f74565b82525050565b6000602082019050610d6e6000830184610b2a565b92915050565b60006020820190508181036000830152610d8e8184610b39565b905092915050565b60006020820190508181036000830152610db08184610b97565b905092915050565b6000602082019050610dcd6000830184610c04565b92915050565b60006020820190508181036000830152610dec81610c13565b9050919050565b60006020820190508181036000830152610e0c81610c53565b9050919050565b60006020820190508181036000830152610e2c81610c93565b9050919050565b6000602082019050610e486000830184610d4a565b92915050565b600060a082019050610e636000830188610d4a565b610e706020830187610d4a565b610e7d6040830186610d4a565b610e8a6060830185610c04565b610e976080830184610b0c565b9695505050505050565b6000819050602082019050919050565b6000819050602082019050919050565b600081519050919050565b600081519050919050565b6000602082019050919050565b6000602082019050919050565b600082825260208201905092915050565b600082825260208201905092915050565b600082825260208201905092915050565b6000610f2f82610f54565b9050919050565b6000610f4182610f54565b9050919050565b60008115159050919050565b600073ffffffffffffffffffffffffffffffffffffffff82169050919050565b6000819050919050565b610f8781610f24565b8114610f9257600080fd5b50565b610f9e81610f36565b8114610fa957600080fd5b50565b610fb581610f74565b8114610fc057600080fd5b5056fea26469706673582212203700e94859498746fb0a54b5c6be96a6fa6efb09f44c9043cb39384eeb30e55764736f6c63430006000033",
  "source": "pragma solidity >=0.4.21 <0.9.0;\npragma experimental ABIEncoderV2;\n\ncontract multiSigWallet {\n    struct Transfer {\n        uint id;\n        uint amount;\n        uint approvals;\n        bool is_sent;\n        address payable to;\n    }\n    address[] public approvers;\n    uint public quorum;\n    Transfer[] public transfers;\n    mapping(address => mapping(uint => bool)) public approvals;\n    \n    constructor(address[] memory _approvers, uint _quorum) public {\n        approvers = _approvers;\n        quorum = _quorum;\n    }\n    \n    function getApprovers() external view returns(address[] memory) {\n        return approvers;\n    }\n    \n    function getTransfers() external view returns(Transfer[] memory) {\n        return transfers;\n    }\n    \n    function approveTransfer(uint id) external onlyApprovedAddresses() {\n        require(transfers[id].is_sent == false, 'transfer already sent');\n        require(approvals[msg.sender][id] == false, 'transfer already approved');\n        \n        approvals[msg.sender][id] = true;\n        transfers[id].approvals++;\n        if (transfers[id].approvals > quorum) {\n            transfers[id].is_sent = true;\n            address payable to = transfers[id].to;\n            uint amount = transfers[id].amount;\n            to.transfer(amount);\n        }\n    }\n    \n    function transferEther(address payable _to, uint _amount) external onlyApprovedAddresses() {\n        transfers.push(Transfer(\n            transfers.length,\n            _amount,\n            0,\n            false,\n            _to\n        ));\n    }\n\n    receive() external payable {\n    \n    }\n    \n    modifier onlyApprovedAddresses()  {\n        bool is_allowed = false;\n        for(uint i = 0; i < approvers.length; i++) {\n            if (approvers[i] == msg.sender) {\n                is_allowed = true;\n            }\n        }\n        require(is_allowed == true, 'Only approvers addresses allowed');\n        _;\n    }\n}",
  "sourcePath": "/home/asap-segfault/dApps/dApps/multiSigWallet/back/contracts/multiSigWallet.sol",
  "compiler": {
    "name": "solc",
    "version": "0.6.0+commit.26b70077.Emscripten.clang"
  },
  "schemaVersion": "3.3.4",
  "updatedAt": "2021-09-05T13:51:18.546Z",
  "networkType": "ethereum",
  "devdoc": {
    "methods": {}
  },
  "userdoc": {
    "methods": {}
  }
}